{
  "_format": "hh-sol-artifact-1",
  "contractName": "WavePortal",
  "sourceName": "contracts/WavePortal.sol",
  "abi": [
    {
      "inputs": [],
      "stateMutability": "payable",
      "type": "constructor"
    },
    {
      "anonymous": false,
      "inputs": [
        {
          "indexed": true,
          "internalType": "address",
          "name": "from",
          "type": "address"
        },
        {
          "indexed": false,
          "internalType": "uint256",
          "name": "timestamp",
          "type": "uint256"
        },
        {
          "indexed": false,
          "internalType": "string",
          "name": "message",
          "type": "string"
        },
        {
          "indexed": false,
          "internalType": "uint256",
          "name": "prize",
          "type": "uint256"
        }
      ],
      "name": "NewWave",
      "type": "event"
    },
    {
      "inputs": [],
      "name": "getAllWaves",
      "outputs": [
        {
          "components": [
            {
              "internalType": "address",
              "name": "waver",
              "type": "address"
            },
            {
              "internalType": "string",
              "name": "message",
              "type": "string"
            },
            {
              "internalType": "uint256",
              "name": "timestamp",
              "type": "uint256"
            },
            {
              "internalType": "uint256",
              "name": "prize",
              "type": "uint256"
            }
          ],
          "internalType": "struct WavePortal.Wave[]",
          "name": "",
          "type": "tuple[]"
        }
      ],
      "stateMutability": "view",
      "type": "function"
    },
    {
      "inputs": [],
      "name": "getBalance",
      "outputs": [
        {
          "internalType": "uint256",
          "name": "",
          "type": "uint256"
        }
      ],
      "stateMutability": "view",
      "type": "function"
    },
    {
      "inputs": [],
      "name": "getTotalWaves",
      "outputs": [
        {
          "internalType": "uint256",
          "name": "",
          "type": "uint256"
        }
      ],
      "stateMutability": "view",
      "type": "function"
    },
    {
      "inputs": [
        {
          "internalType": "address",
          "name": "",
          "type": "address"
        }
      ],
      "name": "lastWavedAt",
      "outputs": [
        {
          "internalType": "uint256",
          "name": "",
          "type": "uint256"
        }
      ],
      "stateMutability": "view",
      "type": "function"
    },
    {
      "inputs": [
        {
          "internalType": "string",
          "name": "_message",
          "type": "string"
        }
      ],
      "name": "wave",
      "outputs": [],
      "stateMutability": "nonpayable",
      "type": "function"
    }
  ],
  "bytecode": "0x608060405262000033604051806060016040528060258152602001620016a6602591396200005b60201b620006fb1760201c565b60644442620000439190620001a8565b6200004f919062000245565b600181905550620002ec565b620000fb8160405160240162000072919062000168565b6040516020818303038152906040527f41304fac000000000000000000000000000000000000000000000000000000007bffffffffffffffffffffffffffffffffffffffffffffffffffffffff19166020820180517bffffffffffffffffffffffffffffffffffffffffffffffffffffffff8381831617835250505050620000fe60201b60201c565b50565b60008151905060006a636f6e736f6c652e6c6f679050602083016000808483855afa5050505050565b600062000134826200018c565b62000140818562000197565b9350620001528185602086016200020f565b6200015d81620002db565b840191505092915050565b6000602082019050818103600083015262000184818462000127565b905092915050565b600081519050919050565b600082825260208201905092915050565b6000620001b58262000205565b9150620001c28362000205565b9250827fffffffffffffffffffffffffffffffffffffffffffffffffffffffffffffffff03821115620001fa57620001f96200027d565b5b828201905092915050565b6000819050919050565b60005b838110156200022f57808201518184015260208101905062000212565b838111156200023f576000848401525b50505050565b6000620002528262000205565b91506200025f8362000205565b925082620002725762000271620002ac565b5b828206905092915050565b7f4e487b7100000000000000000000000000000000000000000000000000000000600052601160045260246000fd5b7f4e487b7100000000000000000000000000000000000000000000000000000000600052601260045260246000fd5b6000601f19601f8301169050919050565b6113aa80620002fc6000396000f3fe608060405234801561001057600080fd5b50600436106100575760003560e01c806312065fe01461005c578063449d46c01461007a5780639a2cdc0814610096578063a42a4663146100b4578063bd43a908146100e4575b600080fd5b610064610102565b6040516100719190610eb3565b60405180910390f35b610094600480360381019061008f9190610ae0565b61011d565b005b61009e61053d565b6040516100ab9190610eb3565b60405180910390f35b6100ce60048036038101906100c99190610ab7565b610588565b6040516100db9190610eb3565b60405180910390f35b6100ec6105a0565b6040516100f99190610d5c565b60405180910390f35b6000670de0b6b3a7640000476101189190611029565b905090565b42601e600360003373ffffffffffffffffffffffffffffffffffffffff1673ffffffffffffffffffffffffffffffffffffffff1681526020019081526020016000205461016a9190610fd3565b106101aa576040517f08c379a00000000000000000000000000000000000000000000000000000000081526004016101a190610e93565b60405180910390fd5b42600360003373ffffffffffffffffffffffffffffffffffffffff1673ffffffffffffffffffffffffffffffffffffffff1681526020019081526020016000208190555060016000808282546102009190610fd3565b925050819055506102476040518060400160405280601d81526020017f2573206861732077617665642077697468206d6573736167653a2025730000008152503383610794565b606460015442446102589190610fd3565b6102629190610fd3565b61026c9190611195565b6001819055506102b36040518060400160405280600f81526020017f53656564206973206e6f773a2025640000000000000000000000000000000000815250600154610833565b6000806509184e72a000905060326001541061040a57600154816102d7919061105a565b91504782111561031c576040517f08c379a000000000000000000000000000000000000000000000000000000000815260040161031390610e73565b60405180910390fd5b60003373ffffffffffffffffffffffffffffffffffffffff168360405161034290610d47565b60006040518083038185875af1925050503d806000811461037f576040519150601f19603f3d011682016040523d82523d6000602084013e610384565b606091505b50509050806103c8576040517f08c379a00000000000000000000000000000000000000000000000000000000081526004016103bf90610e53565b60405180910390fd5b6104086040518060400160405280600e81526020017f257320776f6e202564206574682100000000000000000000000000000000000081525033856108cf565b505b600260405180608001604052803373ffffffffffffffffffffffffffffffffffffffff16815260200185815260200142815260200184815250908060018154018082558091505060019003906000526020600020906004020160009091909190915060008201518160000160006101000a81548173ffffffffffffffffffffffffffffffffffffffff021916908373ffffffffffffffffffffffffffffffffffffffff16021790555060208201518160010190805190602001906104cf929190610997565b50604082015181600201556060820151816003015550503373ffffffffffffffffffffffffffffffffffffffff167f3e113f502ff7c90598a6182f87f699985e9c373d089ba56a11d88a26891c5c8b42858560405161053093929190610ece565b60405180910390a2505050565b60006105806040518060400160405280601781526020017f5765206861766520256420746f74616c20776176657321000000000000000000815250600054610833565b600054905090565b60036020528060005260406000206000915090505481565b60606002805480602002602001604051908101604052809291908181526020016000905b828210156106f257838290600052602060002090600402016040518060800160405290816000820160009054906101000a900473ffffffffffffffffffffffffffffffffffffffff1673ffffffffffffffffffffffffffffffffffffffff1673ffffffffffffffffffffffffffffffffffffffff16815260200160018201805461064d90611132565b80601f016020809104026020016040519081016040528092919081815260200182805461067990611132565b80156106c65780601f1061069b576101008083540402835291602001916106c6565b820191906000526020600020905b8154815290600101906020018083116106a957829003601f168201915b5050505050815260200160028201548152602001600382015481525050815260200190600101906105c4565b50505050905090565b6107918160405160240161070f9190610d7e565b6040516020818303038152906040527f41304fac000000000000000000000000000000000000000000000000000000007bffffffffffffffffffffffffffffffffffffffffffffffffffffffff19166020820180517bffffffffffffffffffffffffffffffffffffffffffffffffffffffff838183161783525050505061096e565b50565b61082e8383836040516024016107ac93929190610da0565b6040516020818303038152906040527fe0e9ad4f000000000000000000000000000000000000000000000000000000007bffffffffffffffffffffffffffffffffffffffffffffffffffffffff19166020820180517bffffffffffffffffffffffffffffffffffffffffffffffffffffffff838183161783525050505061096e565b505050565b6108cb8282604051602401610849929190610e23565b6040516020818303038152906040527f9710a9d0000000000000000000000000000000000000000000000000000000007bffffffffffffffffffffffffffffffffffffffffffffffffffffffff19166020820180517bffffffffffffffffffffffffffffffffffffffffffffffffffffffff838183161783525050505061096e565b5050565b6109698383836040516024016108e793929190610de5565b6040516020818303038152906040527f07c81217000000000000000000000000000000000000000000000000000000007bffffffffffffffffffffffffffffffffffffffffffffffffffffffff19166020820180517bffffffffffffffffffffffffffffffffffffffffffffffffffffffff838183161783525050505061096e565b505050565b60008151905060006a636f6e736f6c652e6c6f679050602083016000808483855afa5050505050565b8280546109a390611132565b90600052602060002090601f0160209004810192826109c55760008555610a0c565b82601f106109de57805160ff1916838001178555610a0c565b82800160010185558215610a0c579182015b82811115610a0b5782518255916020019190600101906109f0565b5b509050610a199190610a1d565b5090565b5b80821115610a36576000816000905550600101610a1e565b5090565b6000610a4d610a4884610f31565b610f0c565b905082815260208101848484011115610a6557600080fd5b610a708482856110f0565b509392505050565b600081359050610a878161135d565b92915050565b600082601f830112610a9e57600080fd5b8135610aae848260208601610a3a565b91505092915050565b600060208284031215610ac957600080fd5b6000610ad784828501610a78565b91505092915050565b600060208284031215610af257600080fd5b600082013567ffffffffffffffff811115610b0c57600080fd5b610b1884828501610a8d565b91505092915050565b6000610b2d8383610cc6565b905092915050565b610b3e816110b4565b82525050565b610b4d816110b4565b82525050565b6000610b5e82610f72565b610b688185610f95565b935083602082028501610b7a85610f62565b8060005b85811015610bb65784840389528151610b978582610b21565b9450610ba283610f88565b925060208a01995050600181019050610b7e565b50829750879550505050505092915050565b6000610bd382610f7d565b610bdd8185610fb1565b9350610bed8185602086016110ff565b610bf681611282565b840191505092915050565b6000610c0c82610f7d565b610c168185610fc2565b9350610c268185602086016110ff565b610c2f81611282565b840191505092915050565b6000610c47602783610fc2565b9150610c5282611293565b604082019050919050565b6000610c6a602583610fc2565b9150610c75826112e2565b604082019050919050565b6000610c8d600883610fc2565b9150610c9882611331565b602082019050919050565b6000610cb0600083610fa6565b9150610cbb8261135a565b600082019050919050565b6000608083016000830151610cde6000860182610b35565b5060208301518482036020860152610cf68282610bc8565b9150506040830151610d0b6040860182610d29565b506060830151610d1e6060860182610d29565b508091505092915050565b610d32816110e6565b82525050565b610d41816110e6565b82525050565b6000610d5282610ca3565b9150819050919050565b60006020820190508181036000830152610d768184610b53565b905092915050565b60006020820190508181036000830152610d988184610c01565b905092915050565b60006060820190508181036000830152610dba8186610c01565b9050610dc96020830185610b44565b8181036040830152610ddb8184610c01565b9050949350505050565b60006060820190508181036000830152610dff8186610c01565b9050610e0e6020830185610b44565b610e1b6040830184610d38565b949350505050565b60006040820190508181036000830152610e3d8185610c01565b9050610e4c6020830184610d38565b9392505050565b60006020820190508181036000830152610e6c81610c3a565b9050919050565b60006020820190508181036000830152610e8c81610c5d565b9050919050565b60006020820190508181036000830152610eac81610c80565b9050919050565b6000602082019050610ec86000830184610d38565b92915050565b6000606082019050610ee36000830186610d38565b8181036020830152610ef58185610c01565b9050610f046040830184610d38565b949350505050565b6000610f16610f27565b9050610f228282611164565b919050565b6000604051905090565b600067ffffffffffffffff821115610f4c57610f4b611253565b5b610f5582611282565b9050602081019050919050565b6000819050602082019050919050565b600081519050919050565b600081519050919050565b6000602082019050919050565b600082825260208201905092915050565b600081905092915050565b600082825260208201905092915050565b600082825260208201905092915050565b6000610fde826110e6565b9150610fe9836110e6565b9250827fffffffffffffffffffffffffffffffffffffffffffffffffffffffffffffffff0382111561101e5761101d6111c6565b5b828201905092915050565b6000611034826110e6565b915061103f836110e6565b92508261104f5761104e6111f5565b5b828204905092915050565b6000611065826110e6565b9150611070836110e6565b9250817fffffffffffffffffffffffffffffffffffffffffffffffffffffffffffffffff04831182151516156110a9576110a86111c6565b5b828202905092915050565b60006110bf826110c6565b9050919050565b600073ffffffffffffffffffffffffffffffffffffffff82169050919050565b6000819050919050565b82818337600083830152505050565b60005b8381101561111d578082015181840152602081019050611102565b8381111561112c576000848401525b50505050565b6000600282049050600182168061114a57607f821691505b6020821081141561115e5761115d611224565b5b50919050565b61116d82611282565b810181811067ffffffffffffffff8211171561118c5761118b611253565b5b80604052505050565b60006111a0826110e6565b91506111ab836110e6565b9250826111bb576111ba6111f5565b5b828206905092915050565b7f4e487b7100000000000000000000000000000000000000000000000000000000600052601160045260246000fd5b7f4e487b7100000000000000000000000000000000000000000000000000000000600052601260045260246000fd5b7f4e487b7100000000000000000000000000000000000000000000000000000000600052602260045260246000fd5b7f4e487b7100000000000000000000000000000000000000000000000000000000600052604160045260246000fd5b6000601f19601f8301169050919050565b7f4661696c656420746f207769746864726177206d6f6e65792066726f6d20636f60008201527f6e74726163742e00000000000000000000000000000000000000000000000000602082015250565b7f4e6f7420656e6f7567682062616c616e636520696e20736d61727420636f6e7460008201527f726163742e000000000000000000000000000000000000000000000000000000602082015250565b7f5761697420333073000000000000000000000000000000000000000000000000600082015250565b50565b611366816110b4565b811461137157600080fd5b5056fea26469706673582212208c99deaac1b41856957624fafcbe8d15a4fddf27fdeb4c70c24f30425a1376ce64736f6c63430008040033596f20796f2c204920616d206120636f6e747261637420616e64204920616d20736d617274",
  "linkReferences": {},
  "deployedLinkReferences": {}
}